{
  "_format": "hh-sol-artifact-1",
  "contractName": "TokenExchange",
  "sourceName": "contracts/TokenExchange.sol",
  "abi": [
    {
      "inputs": [
        {
          "internalType": "address",
          "name": "_token1",
          "type": "address"
        },
        {
          "internalType": "address",
          "name": "_token2",
          "type": "address"
        },
        {
          "internalType": "uint256",
          "name": "_initialRatio",
          "type": "uint256"
        },
        {
          "internalType": "address",
          "name": "_owner",
          "type": "address"
        }
      ],
      "stateMutability": "nonpayable",
      "type": "constructor"
    },
    {
      "inputs": [
        {
          "internalType": "address",
          "name": "owner",
          "type": "address"
        }
      ],
      "name": "OwnableInvalidOwner",
      "type": "error"
    },
    {
      "inputs": [
        {
          "internalType": "address",
          "name": "account",
          "type": "address"
        }
      ],
      "name": "OwnableUnauthorizedAccount",
      "type": "error"
    },
    {
      "anonymous": false,
      "inputs": [
        {
          "indexed": true,
          "internalType": "address",
          "name": "depositor",
          "type": "address"
        },
        {
          "indexed": false,
          "internalType": "uint256",
          "name": "amount",
          "type": "uint256"
        }
      ],
      "name": "DepositToken1",
      "type": "event"
    },
    {
      "anonymous": false,
      "inputs": [
        {
          "indexed": true,
          "internalType": "address",
          "name": "depositor",
          "type": "address"
        },
        {
          "indexed": false,
          "internalType": "uint256",
          "name": "amount",
          "type": "uint256"
        }
      ],
      "name": "DepositToken2",
      "type": "event"
    },
    {
      "anonymous": false,
      "inputs": [
        {
          "indexed": true,
          "internalType": "address",
          "name": "previousOwner",
          "type": "address"
        },
        {
          "indexed": true,
          "internalType": "address",
          "name": "newOwner",
          "type": "address"
        }
      ],
      "name": "OwnershipTransferred",
      "type": "event"
    },
    {
      "anonymous": false,
      "inputs": [
        {
          "indexed": true,
          "internalType": "address",
          "name": "user",
          "type": "address"
        },
        {
          "indexed": true,
          "internalType": "bool",
          "name": "isMFTtoMST",
          "type": "bool"
        },
        {
          "indexed": false,
          "internalType": "uint256",
          "name": "amountIn",
          "type": "uint256"
        },
        {
          "indexed": false,
          "internalType": "uint256",
          "name": "amountOut",
          "type": "uint256"
        }
      ],
      "name": "TokensSwapped",
      "type": "event"
    },
    {
      "inputs": [
        {
          "internalType": "uint256",
          "name": "amount",
          "type": "uint256"
        }
      ],
      "name": "depositToken1",
      "outputs": [],
      "stateMutability": "nonpayable",
      "type": "function"
    },
    {
      "inputs": [
        {
          "internalType": "uint256",
          "name": "amount",
          "type": "uint256"
        }
      ],
      "name": "depositToken2",
      "outputs": [],
      "stateMutability": "nonpayable",
      "type": "function"
    },
    {
      "inputs": [],
      "name": "owner",
      "outputs": [
        {
          "internalType": "address",
          "name": "",
          "type": "address"
        }
      ],
      "stateMutability": "view",
      "type": "function"
    },
    {
      "inputs": [],
      "name": "ratio",
      "outputs": [
        {
          "internalType": "uint256",
          "name": "",
          "type": "uint256"
        }
      ],
      "stateMutability": "view",
      "type": "function"
    },
    {
      "inputs": [],
      "name": "renounceOwnership",
      "outputs": [],
      "stateMutability": "nonpayable",
      "type": "function"
    },
    {
      "inputs": [
        {
          "internalType": "bool",
          "name": "isMFTtoMST",
          "type": "bool"
        },
        {
          "internalType": "uint256",
          "name": "amountIn",
          "type": "uint256"
        }
      ],
      "name": "swapTokens",
      "outputs": [
        {
          "internalType": "uint256",
          "name": "",
          "type": "uint256"
        }
      ],
      "stateMutability": "nonpayable",
      "type": "function"
    },
    {
      "inputs": [],
      "name": "token1",
      "outputs": [
        {
          "internalType": "contract IERC20",
          "name": "",
          "type": "address"
        }
      ],
      "stateMutability": "view",
      "type": "function"
    },
    {
      "inputs": [],
      "name": "token2",
      "outputs": [
        {
          "internalType": "contract IERC20",
          "name": "",
          "type": "address"
        }
      ],
      "stateMutability": "view",
      "type": "function"
    },
    {
      "inputs": [
        {
          "internalType": "address",
          "name": "newOwner",
          "type": "address"
        }
      ],
      "name": "transferOwnership",
      "outputs": [],
      "stateMutability": "nonpayable",
      "type": "function"
    },
    {
      "inputs": [
        {
          "internalType": "uint256",
          "name": "newRatio",
          "type": "uint256"
        }
      ],
      "name": "updateRatio",
      "outputs": [],
      "stateMutability": "nonpayable",
      "type": "function"
    }
  ],
  "bytecode": "0x60806040523480156200001157600080fd5b506040516200179f3803806200179f8339818101604052810190620000379190620002bb565b80600073ffffffffffffffffffffffffffffffffffffffff168173ffffffffffffffffffffffffffffffffffffffff1603620000ad5760006040517f1e4fbdf7000000000000000000000000000000000000000000000000000000008152600401620000a491906200033e565b60405180910390fd5b620000be816200015260201b60201c565b5083600160006101000a81548173ffffffffffffffffffffffffffffffffffffffff021916908373ffffffffffffffffffffffffffffffffffffffff16021790555082600260006101000a81548173ffffffffffffffffffffffffffffffffffffffff021916908373ffffffffffffffffffffffffffffffffffffffff16021790555081600381905550505050506200035b565b60008060009054906101000a900473ffffffffffffffffffffffffffffffffffffffff169050816000806101000a81548173ffffffffffffffffffffffffffffffffffffffff021916908373ffffffffffffffffffffffffffffffffffffffff1602179055508173ffffffffffffffffffffffffffffffffffffffff168173ffffffffffffffffffffffffffffffffffffffff167f8be0079c531659141344cd1fd0a4f28419497f9722a3daafe3b4186f6b6457e060405160405180910390a35050565b600080fd5b600073ffffffffffffffffffffffffffffffffffffffff82169050919050565b600062000248826200021b565b9050919050565b6200025a816200023b565b81146200026657600080fd5b50565b6000815190506200027a816200024f565b92915050565b6000819050919050565b620002958162000280565b8114620002a157600080fd5b50565b600081519050620002b5816200028a565b92915050565b60008060008060808587031215620002d857620002d762000216565b5b6000620002e88782880162000269565b9450506020620002fb8782880162000269565b93505060406200030e87828801620002a4565b9250506060620003218782880162000269565b91505092959194509250565b62000338816200023b565b82525050565b60006020820190506200035560008301846200032d565b92915050565b611434806200036b6000396000f3fe608060405234801561001057600080fd5b506004361061009e5760003560e01c806371ca337d1161006657806371ca337d146101335780638da5cb5b14610151578063d21220a71461016f578063dc647e291461018d578063f2fde38b146101a95761009e565b806325be124e146100a357806352fb6833146100c157806368b84b72146100f157806371210a0d1461010d578063715018a614610129575b600080fd5b6100ab6101c5565b6040516100b89190610ccb565b60405180910390f35b6100db60048036038101906100d69190610d59565b6101eb565b6040516100e89190610da8565b60405180910390f35b61010b60048036038101906101069190610dc3565b6106bb565b005b61012760048036038101906101229190610dc3565b610838565b005b6101316109b5565b005b61013b6109c9565b6040516101489190610da8565b60405180910390f35b6101596109cf565b6040516101669190610e11565b60405180910390f35b6101776109f8565b6040516101849190610ccb565b60405180910390f35b6101a760048036038101906101a29190610dc3565b610a1e565b005b6101c360048036038101906101be9190610e58565b610a73565b005b600260009054906101000a900473ffffffffffffffffffffffffffffffffffffffff1681565b600080821161022f576040517f08c379a000000000000000000000000000000000000000000000000000000000815260040161022690610ee2565b60405180910390fd5b821561047757600160009054906101000a900473ffffffffffffffffffffffffffffffffffffffff1673ffffffffffffffffffffffffffffffffffffffff166323b872dd3330856040518463ffffffff1660e01b815260040161029493929190610f02565b6020604051808303816000875af11580156102b3573d6000803e3d6000fd5b505050506040513d601f19601f820116820180604052508101906102d79190610f4e565b610316576040517f08c379a000000000000000000000000000000000000000000000000000000000815260040161030d90610fc7565b60405180910390fd5b6000670de0b6b3a76400006003548461032f9190611016565b6103399190611087565b9050600260009054906101000a900473ffffffffffffffffffffffffffffffffffffffff1673ffffffffffffffffffffffffffffffffffffffff1663a9059cbb33836040518363ffffffff1660e01b81526004016103989291906110b8565b6020604051808303816000875af11580156103b7573d6000803e3d6000fd5b505050506040513d601f19601f820116820180604052508101906103db9190610f4e565b61041a576040517f08c379a00000000000000000000000000000000000000000000000000000000081526004016104119061112d565b60405180910390fd5b600115153373ffffffffffffffffffffffffffffffffffffffff167fa58b707eb118f04518308dd57d10561bfeeda81090fd2625e3c4281a0aa963c3858460405161046692919061114d565b60405180910390a3809150506106b5565b600260009054906101000a900473ffffffffffffffffffffffffffffffffffffffff1673ffffffffffffffffffffffffffffffffffffffff166323b872dd3330856040518463ffffffff1660e01b81526004016104d693929190610f02565b6020604051808303816000875af11580156104f5573d6000803e3d6000fd5b505050506040513d601f19601f820116820180604052508101906105199190610f4e565b610558576040517f08c379a000000000000000000000000000000000000000000000000000000000815260040161054f906111c2565b60405180910390fd5b6000600354670de0b6b3a7640000846105719190611016565b61057b9190611087565b9050600160009054906101000a900473ffffffffffffffffffffffffffffffffffffffff1673ffffffffffffffffffffffffffffffffffffffff1663a9059cbb33836040518363ffffffff1660e01b81526004016105da9291906110b8565b6020604051808303816000875af11580156105f9573d6000803e3d6000fd5b505050506040513d601f19601f8201168201806040525081019061061d9190610f4e565b61065c576040517f08c379a00000000000000000000000000000000000000000000000000000000081526004016106539061122e565b60405180910390fd5b600015153373ffffffffffffffffffffffffffffffffffffffff167fa58b707eb118f04518308dd57d10561bfeeda81090fd2625e3c4281a0aa963c385846040516106a892919061114d565b60405180910390a3809150505b92915050565b6106c3610af9565b60008111610706576040517f08c379a00000000000000000000000000000000000000000000000000000000081526004016106fd9061129a565b60405180910390fd5b600260009054906101000a900473ffffffffffffffffffffffffffffffffffffffff1673ffffffffffffffffffffffffffffffffffffffff166323b872dd3330846040518463ffffffff1660e01b815260040161076593929190610f02565b6020604051808303816000875af1158015610784573d6000803e3d6000fd5b505050506040513d601f19601f820116820180604052508101906107a89190610f4e565b6107e7576040517f08c379a00000000000000000000000000000000000000000000000000000000081526004016107de90611306565b60405180910390fd5b3373ffffffffffffffffffffffffffffffffffffffff167f6ebf23e7e568b38fc5ff42e9b0bcf95356bfac71530423ede6ba6caf854cbc338260405161082d9190610da8565b60405180910390a250565b610840610af9565b60008111610883576040517f08c379a000000000000000000000000000000000000000000000000000000000815260040161087a9061129a565b60405180910390fd5b600160009054906101000a900473ffffffffffffffffffffffffffffffffffffffff1673ffffffffffffffffffffffffffffffffffffffff166323b872dd3330846040518463ffffffff1660e01b81526004016108e293929190610f02565b6020604051808303816000875af1158015610901573d6000803e3d6000fd5b505050506040513d601f19601f820116820180604052508101906109259190610f4e565b610964576040517f08c379a000000000000000000000000000000000000000000000000000000000815260040161095b90611372565b60405180910390fd5b3373ffffffffffffffffffffffffffffffffffffffff167fbdf2999d4863570bfa1768b6fe514a9f0db2a646e4dc9ab3e22373b7216a1df8826040516109aa9190610da8565b60405180910390a250565b6109bd610af9565b6109c76000610b80565b565b60035481565b60008060009054906101000a900473ffffffffffffffffffffffffffffffffffffffff16905090565b600160009054906101000a900473ffffffffffffffffffffffffffffffffffffffff1681565b610a26610af9565b60008111610a69576040517f08c379a0000000000000000000000000000000000000000000000000000000008152600401610a60906113de565b60405180910390fd5b8060038190555050565b610a7b610af9565b600073ffffffffffffffffffffffffffffffffffffffff168173ffffffffffffffffffffffffffffffffffffffff1603610aed5760006040517f1e4fbdf7000000000000000000000000000000000000000000000000000000008152600401610ae49190610e11565b60405180910390fd5b610af681610b80565b50565b610b01610c44565b73ffffffffffffffffffffffffffffffffffffffff16610b1f6109cf565b73ffffffffffffffffffffffffffffffffffffffff1614610b7e57610b42610c44565b6040517f118cdaa7000000000000000000000000000000000000000000000000000000008152600401610b759190610e11565b60405180910390fd5b565b60008060009054906101000a900473ffffffffffffffffffffffffffffffffffffffff169050816000806101000a81548173ffffffffffffffffffffffffffffffffffffffff021916908373ffffffffffffffffffffffffffffffffffffffff1602179055508173ffffffffffffffffffffffffffffffffffffffff168173ffffffffffffffffffffffffffffffffffffffff167f8be0079c531659141344cd1fd0a4f28419497f9722a3daafe3b4186f6b6457e060405160405180910390a35050565b600033905090565b600073ffffffffffffffffffffffffffffffffffffffff82169050919050565b6000819050919050565b6000610c91610c8c610c8784610c4c565b610c6c565b610c4c565b9050919050565b6000610ca382610c76565b9050919050565b6000610cb582610c98565b9050919050565b610cc581610caa565b82525050565b6000602082019050610ce06000830184610cbc565b92915050565b600080fd5b60008115159050919050565b610d0081610ceb565b8114610d0b57600080fd5b50565b600081359050610d1d81610cf7565b92915050565b6000819050919050565b610d3681610d23565b8114610d4157600080fd5b50565b600081359050610d5381610d2d565b92915050565b60008060408385031215610d7057610d6f610ce6565b5b6000610d7e85828601610d0e565b9250506020610d8f85828601610d44565b9150509250929050565b610da281610d23565b82525050565b6000602082019050610dbd6000830184610d99565b92915050565b600060208284031215610dd957610dd8610ce6565b5b6000610de784828501610d44565b91505092915050565b6000610dfb82610c4c565b9050919050565b610e0b81610df0565b82525050565b6000602082019050610e266000830184610e02565b92915050565b610e3581610df0565b8114610e4057600080fd5b50565b600081359050610e5281610e2c565b92915050565b600060208284031215610e6e57610e6d610ce6565b5b6000610e7c84828501610e43565b91505092915050565b600082825260208201905092915050565b7f43616e6e6f742073776170203000000000000000000000000000000000000000600082015250565b6000610ecc600d83610e85565b9150610ed782610e96565b602082019050919050565b60006020820190508181036000830152610efb81610ebf565b9050919050565b6000606082019050610f176000830186610e02565b610f246020830185610e02565b610f316040830184610d99565b949350505050565b600081519050610f4881610cf7565b92915050565b600060208284031215610f6457610f63610ce6565b5b6000610f7284828501610f39565b91505092915050565b7f7472616e7366657246726f6d204d4654206661696c6564000000000000000000600082015250565b6000610fb1601783610e85565b9150610fbc82610f7b565b602082019050919050565b60006020820190508181036000830152610fe081610fa4565b9050919050565b7f4e487b7100000000000000000000000000000000000000000000000000000000600052601160045260246000fd5b600061102182610d23565b915061102c83610d23565b925082820261103a81610d23565b9150828204841483151761105157611050610fe7565b5b5092915050565b7f4e487b7100000000000000000000000000000000000000000000000000000000600052601260045260246000fd5b600061109282610d23565b915061109d83610d23565b9250826110ad576110ac611058565b5b828204905092915050565b60006040820190506110cd6000830185610e02565b6110da6020830184610d99565b9392505050565b7f7472616e73666572204d5354206661696c656400000000000000000000000000600082015250565b6000611117601383610e85565b9150611122826110e1565b602082019050919050565b600060208201905081810360008301526111468161110a565b9050919050565b60006040820190506111626000830185610d99565b61116f6020830184610d99565b9392505050565b7f7472616e7366657246726f6d204d5354206661696c6564000000000000000000600082015250565b60006111ac601783610e85565b91506111b782611176565b602082019050919050565b600060208201905081810360008301526111db8161119f565b9050919050565b7f7472616e73666572204d4654206661696c656400000000000000000000000000600082015250565b6000611218601383610e85565b9150611223826111e2565b602082019050919050565b600060208201905081810360008301526112478161120b565b9050919050565b7f43616e6e6f74206465706f736974203000000000000000000000000000000000600082015250565b6000611284601083610e85565b915061128f8261124e565b602082019050919050565b600060208201905081810360008301526112b381611277565b9050919050565b7f6465706f736974204d5354206661696c65640000000000000000000000000000600082015250565b60006112f0601283610e85565b91506112fb826112ba565b602082019050919050565b6000602082019050818103600083015261131f816112e3565b9050919050565b7f6465706f736974204d4654206661696c65640000000000000000000000000000600082015250565b600061135c601283610e85565b915061136782611326565b602082019050919050565b6000602082019050818103600083015261138b8161134f565b9050919050565b7f526174696f206d757374206265203e2030000000000000000000000000000000600082015250565b60006113c8601183610e85565b91506113d382611392565b602082019050919050565b600060208201905081810360008301526113f7816113bb565b905091905056fea264697066735822122012ad32ff0550a7743392402c9d659cc1d349912839139d7be50848616300c36264736f6c63430008140033",
  "linkReferences": {},
  "deployedLinkReferences": {}
}