{
  "_format": "hh-sol-artifact-1",
  "contractName": "MyFirstToken",
  "sourceName": "contracts/MyFirstToken.sol",
  "abi": [
    {
      "inputs": [
        {
          "internalType": "uint256",
          "name": "initialSupply",
          "type": "uint256"
        },
        {
          "internalType": "uint256",
          "name": "maxSupply",
          "type": "uint256"
        },
        {
          "internalType": "address",
          "name": "initialOwner",
          "type": "address"
        }
      ],
      "stateMutability": "nonpayable",
      "type": "constructor"
    },
    {
      "inputs": [],
      "name": "ECDSAInvalidSignature",
      "type": "error"
    },
    {
      "inputs": [
        {
          "internalType": "uint256",
          "name": "length",
          "type": "uint256"
        }
      ],
      "name": "ECDSAInvalidSignatureLength",
      "type": "error"
    },
    {
      "inputs": [
        {
          "internalType": "bytes32",
          "name": "s",
          "type": "bytes32"
        }
      ],
      "name": "ECDSAInvalidSignatureS",
      "type": "error"
    },
    {
      "inputs": [
        {
          "internalType": "uint256",
          "name": "increasedSupply",
          "type": "uint256"
        },
        {
          "internalType": "uint256",
          "name": "cap",
          "type": "uint256"
        }
      ],
      "name": "ERC20ExceededCap",
      "type": "error"
    },
    {
      "inputs": [
        {
          "internalType": "address",
          "name": "spender",
          "type": "address"
        },
        {
          "internalType": "uint256",
          "name": "allowance",
          "type": "uint256"
        },
        {
          "internalType": "uint256",
          "name": "needed",
          "type": "uint256"
        }
      ],
      "name": "ERC20InsufficientAllowance",
      "type": "error"
    },
    {
      "inputs": [
        {
          "internalType": "address",
          "name": "sender",
          "type": "address"
        },
        {
          "internalType": "uint256",
          "name": "balance",
          "type": "uint256"
        },
        {
          "internalType": "uint256",
          "name": "needed",
          "type": "uint256"
        }
      ],
      "name": "ERC20InsufficientBalance",
      "type": "error"
    },
    {
      "inputs": [
        {
          "internalType": "address",
          "name": "approver",
          "type": "address"
        }
      ],
      "name": "ERC20InvalidApprover",
      "type": "error"
    },
    {
      "inputs": [
        {
          "internalType": "uint256",
          "name": "cap",
          "type": "uint256"
        }
      ],
      "name": "ERC20InvalidCap",
      "type": "error"
    },
    {
      "inputs": [
        {
          "internalType": "address",
          "name": "receiver",
          "type": "address"
        }
      ],
      "name": "ERC20InvalidReceiver",
      "type": "error"
    },
    {
      "inputs": [
        {
          "internalType": "address",
          "name": "sender",
          "type": "address"
        }
      ],
      "name": "ERC20InvalidSender",
      "type": "error"
    },
    {
      "inputs": [
        {
          "internalType": "address",
          "name": "spender",
          "type": "address"
        }
      ],
      "name": "ERC20InvalidSpender",
      "type": "error"
    },
    {
      "inputs": [
        {
          "internalType": "uint256",
          "name": "deadline",
          "type": "uint256"
        }
      ],
      "name": "ERC2612ExpiredSignature",
      "type": "error"
    },
    {
      "inputs": [
        {
          "internalType": "address",
          "name": "signer",
          "type": "address"
        },
        {
          "internalType": "address",
          "name": "owner",
          "type": "address"
        }
      ],
      "name": "ERC2612InvalidSigner",
      "type": "error"
    },
    {
      "inputs": [
        {
          "internalType": "address",
          "name": "account",
          "type": "address"
        },
        {
          "internalType": "uint256",
          "name": "currentNonce",
          "type": "uint256"
        }
      ],
      "name": "InvalidAccountNonce",
      "type": "error"
    },
    {
      "inputs": [],
      "name": "InvalidShortString",
      "type": "error"
    },
    {
      "inputs": [
        {
          "internalType": "address",
          "name": "owner",
          "type": "address"
        }
      ],
      "name": "OwnableInvalidOwner",
      "type": "error"
    },
    {
      "inputs": [
        {
          "internalType": "address",
          "name": "account",
          "type": "address"
        }
      ],
      "name": "OwnableUnauthorizedAccount",
      "type": "error"
    },
    {
      "inputs": [
        {
          "internalType": "string",
          "name": "str",
          "type": "string"
        }
      ],
      "name": "StringTooLong",
      "type": "error"
    },
    {
      "anonymous": false,
      "inputs": [
        {
          "indexed": true,
          "internalType": "address",
          "name": "owner",
          "type": "address"
        },
        {
          "indexed": true,
          "internalType": "address",
          "name": "spender",
          "type": "address"
        },
        {
          "indexed": false,
          "internalType": "uint256",
          "name": "value",
          "type": "uint256"
        }
      ],
      "name": "Approval",
      "type": "event"
    },
    {
      "anonymous": false,
      "inputs": [],
      "name": "EIP712DomainChanged",
      "type": "event"
    },
    {
      "anonymous": false,
      "inputs": [
        {
          "indexed": true,
          "internalType": "address",
          "name": "previousOwner",
          "type": "address"
        },
        {
          "indexed": true,
          "internalType": "address",
          "name": "newOwner",
          "type": "address"
        }
      ],
      "name": "OwnershipTransferred",
      "type": "event"
    },
    {
      "anonymous": false,
      "inputs": [
        {
          "indexed": true,
          "internalType": "address",
          "name": "from",
          "type": "address"
        },
        {
          "indexed": true,
          "internalType": "address",
          "name": "to",
          "type": "address"
        },
        {
          "indexed": false,
          "internalType": "uint256",
          "name": "value",
          "type": "uint256"
        }
      ],
      "name": "Transfer",
      "type": "event"
    },
    {
      "inputs": [],
      "name": "DOMAIN_SEPARATOR",
      "outputs": [
        {
          "internalType": "bytes32",
          "name": "",
          "type": "bytes32"
        }
      ],
      "stateMutability": "view",
      "type": "function"
    },
    {
      "inputs": [
        {
          "internalType": "address",
          "name": "owner",
          "type": "address"
        },
        {
          "internalType": "address",
          "name": "spender",
          "type": "address"
        }
      ],
      "name": "allowance",
      "outputs": [
        {
          "internalType": "uint256",
          "name": "",
          "type": "uint256"
        }
      ],
      "stateMutability": "view",
      "type": "function"
    },
    {
      "inputs": [
        {
          "internalType": "address",
          "name": "spender",
          "type": "address"
        },
        {
          "internalType": "uint256",
          "name": "value",
          "type": "uint256"
        }
      ],
      "name": "approve",
      "outputs": [
        {
          "internalType": "bool",
          "name": "",
          "type": "bool"
        }
      ],
      "stateMutability": "nonpayable",
      "type": "function"
    },
    {
      "inputs": [
        {
          "internalType": "address",
          "name": "account",
          "type": "address"
        }
      ],
      "name": "balanceOf",
      "outputs": [
        {
          "internalType": "uint256",
          "name": "",
          "type": "uint256"
        }
      ],
      "stateMutability": "view",
      "type": "function"
    },
    {
      "inputs": [],
      "name": "cap",
      "outputs": [
        {
          "internalType": "uint256",
          "name": "",
          "type": "uint256"
        }
      ],
      "stateMutability": "view",
      "type": "function"
    },
    {
      "inputs": [],
      "name": "decimals",
      "outputs": [
        {
          "internalType": "uint8",
          "name": "",
          "type": "uint8"
        }
      ],
      "stateMutability": "view",
      "type": "function"
    },
    {
      "inputs": [],
      "name": "eip712Domain",
      "outputs": [
        {
          "internalType": "bytes1",
          "name": "fields",
          "type": "bytes1"
        },
        {
          "internalType": "string",
          "name": "name",
          "type": "string"
        },
        {
          "internalType": "string",
          "name": "version",
          "type": "string"
        },
        {
          "internalType": "uint256",
          "name": "chainId",
          "type": "uint256"
        },
        {
          "internalType": "address",
          "name": "verifyingContract",
          "type": "address"
        },
        {
          "internalType": "bytes32",
          "name": "salt",
          "type": "bytes32"
        },
        {
          "internalType": "uint256[]",
          "name": "extensions",
          "type": "uint256[]"
        }
      ],
      "stateMutability": "view",
      "type": "function"
    },
    {
      "inputs": [
        {
          "internalType": "address",
          "name": "to",
          "type": "address"
        },
        {
          "internalType": "uint256",
          "name": "amount",
          "type": "uint256"
        }
      ],
      "name": "mint",
      "outputs": [],
      "stateMutability": "nonpayable",
      "type": "function"
    },
    {
      "inputs": [],
      "name": "name",
      "outputs": [
        {
          "internalType": "string",
          "name": "",
          "type": "string"
        }
      ],
      "stateMutability": "view",
      "type": "function"
    },
    {
      "inputs": [
        {
          "internalType": "address",
          "name": "owner",
          "type": "address"
        }
      ],
      "name": "nonces",
      "outputs": [
        {
          "internalType": "uint256",
          "name": "",
          "type": "uint256"
        }
      ],
      "stateMutability": "view",
      "type": "function"
    },
    {
      "inputs": [],
      "name": "owner",
      "outputs": [
        {
          "internalType": "address",
          "name": "",
          "type": "address"
        }
      ],
      "stateMutability": "view",
      "type": "function"
    },
    {
      "inputs": [
        {
          "internalType": "address",
          "name": "owner",
          "type": "address"
        },
        {
          "internalType": "address",
          "name": "spender",
          "type": "address"
        },
        {
          "internalType": "uint256",
          "name": "value",
          "type": "uint256"
        },
        {
          "internalType": "uint256",
          "name": "deadline",
          "type": "uint256"
        },
        {
          "internalType": "uint8",
          "name": "v",
          "type": "uint8"
        },
        {
          "internalType": "bytes32",
          "name": "r",
          "type": "bytes32"
        },
        {
          "internalType": "bytes32",
          "name": "s",
          "type": "bytes32"
        }
      ],
      "name": "permit",
      "outputs": [],
      "stateMutability": "nonpayable",
      "type": "function"
    },
    {
      "inputs": [],
      "name": "renounceOwnership",
      "outputs": [],
      "stateMutability": "nonpayable",
      "type": "function"
    },
    {
      "inputs": [],
      "name": "symbol",
      "outputs": [
        {
          "internalType": "string",
          "name": "",
          "type": "string"
        }
      ],
      "stateMutability": "view",
      "type": "function"
    },
    {
      "inputs": [],
      "name": "totalSupply",
      "outputs": [
        {
          "internalType": "uint256",
          "name": "",
          "type": "uint256"
        }
      ],
      "stateMutability": "view",
      "type": "function"
    },
    {
      "inputs": [
        {
          "internalType": "address",
          "name": "to",
          "type": "address"
        },
        {
          "internalType": "uint256",
          "name": "value",
          "type": "uint256"
        }
      ],
      "name": "transfer",
      "outputs": [
        {
          "internalType": "bool",
          "name": "",
          "type": "bool"
        }
      ],
      "stateMutability": "nonpayable",
      "type": "function"
    },
    {
      "inputs": [
        {
          "internalType": "address",
          "name": "from",
          "type": "address"
        },
        {
          "internalType": "address",
          "name": "to",
          "type": "address"
        },
        {
          "internalType": "uint256",
          "name": "value",
          "type": "uint256"
        }
      ],
      "name": "transferFrom",
      "outputs": [
        {
          "internalType": "bool",
          "name": "",
          "type": "bool"
        }
      ],
      "stateMutability": "nonpayable",
      "type": "function"
    },
    {
      "inputs": [
        {
          "internalType": "address",
          "name": "newOwner",
          "type": "address"
        }
      ],
      "name": "transferOwnership",
      "outputs": [],
      "stateMutability": "nonpayable",
      "type": "function"
    }
  ],
  "bytecode": "0x6101806040523480156200001257600080fd5b50604051620034ff380380620034ff8339818101604052810190620000389190620009c5565b806040518060400160405280600c81526020017f4d794669727374546f6b656e0000000000000000000000000000000000000000815250806040518060400160405280600181526020017f3100000000000000000000000000000000000000000000000000000000000000815250620000b66200037960201b60201c565b600a620000c4919062000bb1565b86620000d1919062000c02565b6040518060400160405280600c81526020017f4d794669727374546f6b656e00000000000000000000000000000000000000008152506040518060400160405280600381526020017f4d4654000000000000000000000000000000000000000000000000000000000081525081600390816200014e919062000ebd565b50806004908162000160919062000ebd565b50505060008103620001ac5760006040517f392e1e27000000000000000000000000000000000000000000000000000000008152600401620001a3919062000fe7565b60405180910390fd5b806080818152505050620001cb6005836200038260201b90919060201c565b6101408181525050620001e96006826200038260201b90919060201c565b610160818152505081805190602001206101008181525050808051906020012061012081815250504660c0818152505062000229620003da60201b60201c565b60a081815250503073ffffffffffffffffffffffffffffffffffffffff1660e08173ffffffffffffffffffffffffffffffffffffffff1681525050505050600073ffffffffffffffffffffffffffffffffffffffff168173ffffffffffffffffffffffffffffffffffffffff1603620002dc5760006040517f1e4fbdf7000000000000000000000000000000000000000000000000000000008152600401620002d3919062001015565b60405180910390fd5b620002ed816200043860201b60201c565b508183111562000334576040517f08c379a00000000000000000000000000000000000000000000000000000000081526004016200032b9062001093565b60405180910390fd5b6200037081620003496200037960201b60201c565b600a62000357919062000bb1565b8562000364919062000c02565b620004fe60201b60201c565b50505062001344565b60006012905090565b6000602083511015620003a857620003a0836200058b60201b60201c565b9050620003d4565b82620003ba83620005f860201b60201c565b6000019081620003cb919062000ebd565b5060ff60001b90505b92915050565b60007f8b73c3c69bb8fe3d512ecc4cf759cc79239f7b179b0ffacaa9a75d522b39400f610100516101205146306040516020016200041d959493929190620010e1565b60405160208183030381529060405280519060200120905090565b6000600860009054906101000a900473ffffffffffffffffffffffffffffffffffffffff16905081600860006101000a81548173ffffffffffffffffffffffffffffffffffffffff021916908373ffffffffffffffffffffffffffffffffffffffff1602179055508173ffffffffffffffffffffffffffffffffffffffff168173ffffffffffffffffffffffffffffffffffffffff167f8be0079c531659141344cd1fd0a4f28419497f9722a3daafe3b4186f6b6457e060405160405180910390a35050565b600073ffffffffffffffffffffffffffffffffffffffff168273ffffffffffffffffffffffffffffffffffffffff1603620005735760006040517fec442f050000000000000000000000000000000000000000000000000000000081526004016200056a919062001015565b60405180910390fd5b62000587600083836200060260201b60201c565b5050565b600080829050601f81511115620005db57826040517f305a27a9000000000000000000000000000000000000000000000000000000008152600401620005d29190620011bc565b60405180910390fd5b805181620005e99062001212565b60001c1760001b915050919050565b6000819050919050565b620006158383836200061a60201b60201c565b505050565b6200062d838383620006dc60201b60201c565b600073ffffffffffffffffffffffffffffffffffffffff168373ffffffffffffffffffffffffffffffffffffffff1603620006d7576000620006746200090c60201b60201c565b90506000620006886200091660201b60201c565b905081811115620006d45780826040517f9e79f854000000000000000000000000000000000000000000000000000000008152600401620006cb92919062001282565b60405180910390fd5b50505b505050565b600073ffffffffffffffffffffffffffffffffffffffff168373ffffffffffffffffffffffffffffffffffffffff160362000732578060026000828254620007259190620012af565b9250508190555062000808565b60008060008573ffffffffffffffffffffffffffffffffffffffff1673ffffffffffffffffffffffffffffffffffffffff16815260200190815260200160002054905081811015620007c1578381836040517fe450d38c000000000000000000000000000000000000000000000000000000008152600401620007b893929190620012ea565b60405180910390fd5b8181036000808673ffffffffffffffffffffffffffffffffffffffff1673ffffffffffffffffffffffffffffffffffffffff16815260200190815260200160002081905550505b600073ffffffffffffffffffffffffffffffffffffffff168273ffffffffffffffffffffffffffffffffffffffff1603620008535780600260008282540392505081905550620008a0565b806000808473ffffffffffffffffffffffffffffffffffffffff1673ffffffffffffffffffffffffffffffffffffffff168152602001908152602001600020600082825401925050819055505b8173ffffffffffffffffffffffffffffffffffffffff168373ffffffffffffffffffffffffffffffffffffffff167fddf252ad1be2c89b69c2b068fc378daa952ba7f163c4a11628f55a4df523b3ef83604051620008ff919062001327565b60405180910390a3505050565b6000608051905090565b6000600254905090565b600080fd5b6000819050919050565b6200093a8162000925565b81146200094657600080fd5b50565b6000815190506200095a816200092f565b92915050565b600073ffffffffffffffffffffffffffffffffffffffff82169050919050565b60006200098d8262000960565b9050919050565b6200099f8162000980565b8114620009ab57600080fd5b50565b600081519050620009bf8162000994565b92915050565b600080600060608486031215620009e157620009e062000920565b5b6000620009f18682870162000949565b935050602062000a048682870162000949565b925050604062000a1786828701620009ae565b9150509250925092565b7f4e487b7100000000000000000000000000000000000000000000000000000000600052601160045260246000fd5b60008160011c9050919050565b6000808291508390505b600185111562000aaf5780860481111562000a875762000a8662000a21565b5b600185161562000a975780820291505b808102905062000aa78562000a50565b945062000a67565b94509492505050565b60008262000aca576001905062000b9d565b8162000ada576000905062000b9d565b816001811462000af3576002811462000afe5762000b34565b600191505062000b9d565b60ff84111562000b135762000b1262000a21565b5b8360020a91508482111562000b2d5762000b2c62000a21565b5b5062000b9d565b5060208310610133831016604e8410600b841016171562000b6e5782820a90508381111562000b685762000b6762000a21565b5b62000b9d565b62000b7d848484600162000a5d565b9250905081840481111562000b975762000b9662000a21565b5b81810290505b9392505050565b600060ff82169050919050565b600062000bbe8262000925565b915062000bcb8362000ba4565b925062000bfa7fffffffffffffffffffffffffffffffffffffffffffffffffffffffffffffffff848462000ab8565b905092915050565b600062000c0f8262000925565b915062000c1c8362000925565b925082820262000c2c8162000925565b9150828204841483151762000c465762000c4562000a21565b5b5092915050565b600081519050919050565b7f4e487b7100000000000000000000000000000000000000000000000000000000600052604160045260246000fd5b7f4e487b7100000000000000000000000000000000000000000000000000000000600052602260045260246000fd5b6000600282049050600182168062000ccf57607f821691505b60208210810362000ce55762000ce462000c87565b5b50919050565b60008190508160005260206000209050919050565b60006020601f8301049050919050565b600082821b905092915050565b60006008830262000d4f7fffffffffffffffffffffffffffffffffffffffffffffffffffffffffffffffff8262000d10565b62000d5b868362000d10565b95508019841693508086168417925050509392505050565b6000819050919050565b600062000d9e62000d9862000d928462000925565b62000d73565b62000925565b9050919050565b6000819050919050565b62000dba8362000d7d565b62000dd262000dc98262000da5565b84845462000d1d565b825550505050565b600090565b62000de962000dda565b62000df681848462000daf565b505050565b5b8181101562000e1e5762000e1260008262000ddf565b60018101905062000dfc565b5050565b601f82111562000e6d5762000e378162000ceb565b62000e428462000d00565b8101602085101562000e52578190505b62000e6a62000e618562000d00565b83018262000dfb565b50505b505050565b600082821c905092915050565b600062000e926000198460080262000e72565b1980831691505092915050565b600062000ead838362000e7f565b9150826002028217905092915050565b62000ec88262000c4d565b67ffffffffffffffff81111562000ee45762000ee362000c58565b5b62000ef0825462000cb6565b62000efd82828562000e22565b600060209050601f83116001811462000f35576000841562000f20578287015190505b62000f2c858262000e9f565b86555062000f9c565b601f19841662000f458662000ceb565b60005b8281101562000f6f5784890151825560018201915060208501945060208101905062000f48565b8683101562000f8f578489015162000f8b601f89168262000e7f565b8355505b6001600288020188555050505b505050505050565b6000819050919050565b600062000fcf62000fc962000fc38462000fa4565b62000d73565b62000925565b9050919050565b62000fe18162000fae565b82525050565b600060208201905062000ffe600083018462000fd6565b92915050565b6200100f8162000980565b82525050565b60006020820190506200102c600083018462001004565b92915050565b600082825260208201905092915050565b7f496e697469616c20737570706c79206578636565647320636170000000000000600082015250565b60006200107b601a8362001032565b9150620010888262001043565b602082019050919050565b60006020820190508181036000830152620010ae816200106c565b9050919050565b6000819050919050565b620010ca81620010b5565b82525050565b620010db8162000925565b82525050565b600060a082019050620010f86000830188620010bf565b620011076020830187620010bf565b620011166040830186620010bf565b620011256060830185620010d0565b62001134608083018462001004565b9695505050505050565b60005b838110156200115e57808201518184015260208101905062001141565b60008484015250505050565b6000601f19601f8301169050919050565b6000620011888262000c4d565b62001194818562001032565b9350620011a68185602086016200113e565b620011b1816200116a565b840191505092915050565b60006020820190508181036000830152620011d881846200117b565b905092915050565b600081519050919050565b6000819050602082019050919050565b6000620012098251620010b5565b80915050919050565b60006200121f82620011e0565b826200122b84620011eb565b90506200123881620011fb565b925060208210156200127b57620012767fffffffffffffffffffffffffffffffffffffffffffffffffffffffffffffffff8360200360080262000d10565b831692505b5050919050565b6000604082019050620012996000830185620010d0565b620012a86020830184620010d0565b9392505050565b6000620012bc8262000925565b9150620012c98362000925565b9250828201905080821115620012e457620012e362000a21565b5b92915050565b600060608201905062001301600083018662001004565b620013106020830185620010d0565b6200131f6040830184620010d0565b949350505050565b60006020820190506200133e6000830184620010d0565b92915050565b60805160a05160c05160e05161010051610120516101405161016051612155620013aa6000396000610e3101526000610df6015260006111310152600061111001526000610b2201526000610b7801526000610ba10152600061048a01526121556000f3fe608060405234801561001057600080fd5b50600436106101165760003560e01c8063715018a6116100a257806395d89b411161007157806395d89b41146102d9578063a9059cbb146102f7578063d505accf14610327578063dd62ed3e14610343578063f2fde38b1461037357610116565b8063715018a61461025d5780637ecebe001461026757806384b0196e146102975780638da5cb5b146102bb57610116565b8063313ce567116100e9578063313ce567146101b7578063355274ea146101d55780633644e515146101f357806340c10f191461021157806370a082311461022d57610116565b806306fdde031461011b578063095ea7b31461013957806318160ddd1461016957806323b872dd14610187575b600080fd5b61012361038f565b60405161013091906118e9565b60405180910390f35b610153600480360381019061014e91906119a4565b610421565b60405161016091906119ff565b60405180910390f35b610171610444565b60405161017e9190611a29565b60405180910390f35b6101a1600480360381019061019c9190611a44565b61044e565b6040516101ae91906119ff565b60405180910390f35b6101bf61047d565b6040516101cc9190611ab3565b60405180910390f35b6101dd610486565b6040516101ea9190611a29565b60405180910390f35b6101fb6104ae565b6040516102089190611ae7565b60405180910390f35b61022b600480360381019061022691906119a4565b6104bd565b005b61024760048036038101906102429190611b02565b61052f565b6040516102549190611a29565b60405180910390f35b610265610577565b005b610281600480360381019061027c9190611b02565b61058b565b60405161028e9190611a29565b60405180910390f35b61029f61059d565b6040516102b29796959493929190611c37565b60405180910390f35b6102c3610647565b6040516102d09190611cbb565b60405180910390f35b6102e1610671565b6040516102ee91906118e9565b60405180910390f35b610311600480360381019061030c91906119a4565b610703565b60405161031e91906119ff565b60405180910390f35b610341600480360381019061033c9190611d2e565b610726565b005b61035d60048036038101906103589190611dd0565b61086e565b60405161036a9190611a29565b60405180910390f35b61038d60048036038101906103889190611b02565b6108f5565b005b60606003805461039e90611e3f565b80601f01602080910402602001604051908101604052809291908181526020018280546103ca90611e3f565b80156104175780601f106103ec57610100808354040283529160200191610417565b820191906000526020600020905b8154815290600101906020018083116103fa57829003601f168201915b5050505050905090565b60008061042c61097b565b9050610439818585610983565b600191505092915050565b6000600254905090565b60008061045961097b565b9050610466858285610995565b610471858585610a2a565b60019150509392505050565b60006012905090565b60007f0000000000000000000000000000000000000000000000000000000000000000905090565b60006104b8610b1e565b905090565b6104c5610bd5565b6104cd610486565b816104d6610444565b6104e09190611e9f565b1115610521576040517f08c379a000000000000000000000000000000000000000000000000000000000815260040161051890611f1f565b60405180910390fd5b61052b8282610c5c565b5050565b60008060008373ffffffffffffffffffffffffffffffffffffffff1673ffffffffffffffffffffffffffffffffffffffff168152602001908152602001600020549050919050565b61057f610bd5565b6105896000610cde565b565b600061059682610da4565b9050919050565b6000606080600080600060606105b1610ded565b6105b9610e28565b46306000801b600067ffffffffffffffff8111156105da576105d9611f3f565b5b6040519080825280602002602001820160405280156106085781602001602082028036833780820191505090505b507f0f00000000000000000000000000000000000000000000000000000000000000959493929190965096509650965096509650965090919293949596565b6000600860009054906101000a900473ffffffffffffffffffffffffffffffffffffffff16905090565b60606004805461068090611e3f565b80601f01602080910402602001604051908101604052809291908181526020018280546106ac90611e3f565b80156106f95780601f106106ce576101008083540402835291602001916106f9565b820191906000526020600020905b8154815290600101906020018083116106dc57829003601f168201915b5050505050905090565b60008061070e61097b565b905061071b818585610a2a565b600191505092915050565b8342111561076b57836040517f627913020000000000000000000000000000000000000000000000000000000081526004016107629190611a29565b60405180910390fd5b60007f6e71edae12b1b97f4d1f60370fef10105fa2faae0126114a169c64845d6126c988888861079a8c610e63565b896040516020016107b096959493929190611f6e565b60405160208183030381529060405280519060200120905060006107d382610eba565b905060006107e382878787610ed4565b90508973ffffffffffffffffffffffffffffffffffffffff168173ffffffffffffffffffffffffffffffffffffffff161461085757808a6040517f4b800e4600000000000000000000000000000000000000000000000000000000815260040161084e929190611fcf565b60405180910390fd5b6108628a8a8a610983565b50505050505050505050565b6000600160008473ffffffffffffffffffffffffffffffffffffffff1673ffffffffffffffffffffffffffffffffffffffff16815260200190815260200160002060008373ffffffffffffffffffffffffffffffffffffffff1673ffffffffffffffffffffffffffffffffffffffff16815260200190815260200160002054905092915050565b6108fd610bd5565b600073ffffffffffffffffffffffffffffffffffffffff168173ffffffffffffffffffffffffffffffffffffffff160361096f5760006040517f1e4fbdf70000000000000000000000000000000000000000000000000000000081526004016109669190611cbb565b60405180910390fd5b61097881610cde565b50565b600033905090565b6109908383836001610f04565b505050565b60006109a1848461086e565b90507fffffffffffffffffffffffffffffffffffffffffffffffffffffffffffffffff811015610a245781811015610a14578281836040517ffb8f41b2000000000000000000000000000000000000000000000000000000008152600401610a0b93929190611ff8565b60405180910390fd5b610a2384848484036000610f04565b5b50505050565b600073ffffffffffffffffffffffffffffffffffffffff168373ffffffffffffffffffffffffffffffffffffffff1603610a9c5760006040517f96c6fd1e000000000000000000000000000000000000000000000000000000008152600401610a939190611cbb565b60405180910390fd5b600073ffffffffffffffffffffffffffffffffffffffff168273ffffffffffffffffffffffffffffffffffffffff1603610b0e5760006040517fec442f05000000000000000000000000000000000000000000000000000000008152600401610b059190611cbb565b60405180910390fd5b610b198383836110db565b505050565b60007f000000000000000000000000000000000000000000000000000000000000000073ffffffffffffffffffffffffffffffffffffffff163073ffffffffffffffffffffffffffffffffffffffff16148015610b9a57507f000000000000000000000000000000000000000000000000000000000000000046145b15610bc7577f00000000000000000000000000000000000000000000000000000000000000009050610bd2565b610bcf6110eb565b90505b90565b610bdd61097b565b73ffffffffffffffffffffffffffffffffffffffff16610bfb610647565b73ffffffffffffffffffffffffffffffffffffffff1614610c5a57610c1e61097b565b6040517f118cdaa7000000000000000000000000000000000000000000000000000000008152600401610c519190611cbb565b60405180910390fd5b565b600073ffffffffffffffffffffffffffffffffffffffff168273ffffffffffffffffffffffffffffffffffffffff1603610cce5760006040517fec442f05000000000000000000000000000000000000000000000000000000008152600401610cc59190611cbb565b60405180910390fd5b610cda600083836110db565b5050565b6000600860009054906101000a900473ffffffffffffffffffffffffffffffffffffffff16905081600860006101000a81548173ffffffffffffffffffffffffffffffffffffffff021916908373ffffffffffffffffffffffffffffffffffffffff1602179055508173ffffffffffffffffffffffffffffffffffffffff168173ffffffffffffffffffffffffffffffffffffffff167f8be0079c531659141344cd1fd0a4f28419497f9722a3daafe3b4186f6b6457e060405160405180910390a35050565b6000600760008373ffffffffffffffffffffffffffffffffffffffff1673ffffffffffffffffffffffffffffffffffffffff168152602001908152602001600020549050919050565b6060610e2360057f000000000000000000000000000000000000000000000000000000000000000061118190919063ffffffff16565b905090565b6060610e5e60067f000000000000000000000000000000000000000000000000000000000000000061118190919063ffffffff16565b905090565b6000600760008373ffffffffffffffffffffffffffffffffffffffff1673ffffffffffffffffffffffffffffffffffffffff1681526020019081526020016000206000815480929190600101919050559050919050565b6000610ecd610ec7610b1e565b83611231565b9050919050565b600080600080610ee688888888611272565b925092509250610ef68282611366565b829350505050949350505050565b600073ffffffffffffffffffffffffffffffffffffffff168473ffffffffffffffffffffffffffffffffffffffff1603610f765760006040517fe602df05000000000000000000000000000000000000000000000000000000008152600401610f6d9190611cbb565b60405180910390fd5b600073ffffffffffffffffffffffffffffffffffffffff168373ffffffffffffffffffffffffffffffffffffffff1603610fe85760006040517f94280d62000000000000000000000000000000000000000000000000000000008152600401610fdf9190611cbb565b60405180910390fd5b81600160008673ffffffffffffffffffffffffffffffffffffffff1673ffffffffffffffffffffffffffffffffffffffff16815260200190815260200160002060008573ffffffffffffffffffffffffffffffffffffffff1673ffffffffffffffffffffffffffffffffffffffff1681526020019081526020016000208190555080156110d5578273ffffffffffffffffffffffffffffffffffffffff168473ffffffffffffffffffffffffffffffffffffffff167f8c5be1e5ebec7d5bd14f71427d1e84f3dd0314c0f7b2291e5b200ac8c7c3b925846040516110cc9190611a29565b60405180910390a35b50505050565b6110e68383836114ca565b505050565b60007f8b73c3c69bb8fe3d512ecc4cf759cc79239f7b179b0ffacaa9a75d522b39400f7f00000000000000000000000000000000000000000000000000000000000000007f0000000000000000000000000000000000000000000000000000000000000000463060405160200161116695949392919061202f565b60405160208183030381529060405280519060200120905090565b606060ff60001b831461119e5761119783611570565b905061122b565b8180546111aa90611e3f565b80601f01602080910402602001604051908101604052809291908181526020018280546111d690611e3f565b80156112235780601f106111f857610100808354040283529160200191611223565b820191906000526020600020905b81548152906001019060200180831161120657829003601f168201915b505050505090505b92915050565b60006040517f190100000000000000000000000000000000000000000000000000000000000081528360028201528260228201526042812091505092915050565b60008060007f7fffffffffffffffffffffffffffffff5d576e7357a4501ddfe92f46681b20a08460001c11156112b257600060038592509250925061135c565b6000600188888888604051600081526020016040526040516112d79493929190612082565b6020604051602081039080840390855afa1580156112f9573d6000803e3d6000fd5b505050602060405103519050600073ffffffffffffffffffffffffffffffffffffffff168173ffffffffffffffffffffffffffffffffffffffff160361134d57600060016000801b9350935093505061135c565b8060008060001b935093509350505b9450945094915050565b6000600381111561137a576113796120c7565b5b82600381111561138d5761138c6120c7565b5b03156114c657600160038111156113a7576113a66120c7565b5b8260038111156113ba576113b96120c7565b5b036113f1576040517ff645eedf00000000000000000000000000000000000000000000000000000000815260040160405180910390fd5b60026003811115611405576114046120c7565b5b826003811115611418576114176120c7565b5b0361145d578060001c6040517ffce698f70000000000000000000000000000000000000000000000000000000081526004016114549190611a29565b60405180910390fd5b6003808111156114705761146f6120c7565b5b826003811115611483576114826120c7565b5b036114c557806040517fd78bce0c0000000000000000000000000000000000000000000000000000000081526004016114bc9190611ae7565b60405180910390fd5b5b5050565b6114d58383836115e4565b600073ffffffffffffffffffffffffffffffffffffffff168373ffffffffffffffffffffffffffffffffffffffff160361156b576000611513610486565b9050600061151f610444565b9050818111156115685780826040517f9e79f85400000000000000000000000000000000000000000000000000000000815260040161155f9291906120f6565b60405180910390fd5b50505b505050565b6060600061157d83611809565b90506000602067ffffffffffffffff81111561159c5761159b611f3f565b5b6040519080825280601f01601f1916602001820160405280156115ce5781602001600182028036833780820191505090505b5090508181528360208201528092505050919050565b600073ffffffffffffffffffffffffffffffffffffffff168373ffffffffffffffffffffffffffffffffffffffff160361163657806002600082825461162a9190611e9f565b92505081905550611709565b60008060008573ffffffffffffffffffffffffffffffffffffffff1673ffffffffffffffffffffffffffffffffffffffff168152602001908152602001600020549050818110156116c2578381836040517fe450d38c0000000000000000000000000000000000000000000000000000000081526004016116b993929190611ff8565b60405180910390fd5b8181036000808673ffffffffffffffffffffffffffffffffffffffff1673ffffffffffffffffffffffffffffffffffffffff16815260200190815260200160002081905550505b600073ffffffffffffffffffffffffffffffffffffffff168273ffffffffffffffffffffffffffffffffffffffff1603611752578060026000828254039250508190555061179f565b806000808473ffffffffffffffffffffffffffffffffffffffff1673ffffffffffffffffffffffffffffffffffffffff168152602001908152602001600020600082825401925050819055505b8173ffffffffffffffffffffffffffffffffffffffff168373ffffffffffffffffffffffffffffffffffffffff167fddf252ad1be2c89b69c2b068fc378daa952ba7f163c4a11628f55a4df523b3ef836040516117fc9190611a29565b60405180910390a3505050565b60008060ff8360001c169050601f811115611850576040517fb3512b0c00000000000000000000000000000000000000000000000000000000815260040160405180910390fd5b80915050919050565b600081519050919050565b600082825260208201905092915050565b60005b83811015611893578082015181840152602081019050611878565b60008484015250505050565b6000601f19601f8301169050919050565b60006118bb82611859565b6118c58185611864565b93506118d5818560208601611875565b6118de8161189f565b840191505092915050565b6000602082019050818103600083015261190381846118b0565b905092915050565b600080fd5b600073ffffffffffffffffffffffffffffffffffffffff82169050919050565b600061193b82611910565b9050919050565b61194b81611930565b811461195657600080fd5b50565b60008135905061196881611942565b92915050565b6000819050919050565b6119818161196e565b811461198c57600080fd5b50565b60008135905061199e81611978565b92915050565b600080604083850312156119bb576119ba61190b565b5b60006119c985828601611959565b92505060206119da8582860161198f565b9150509250929050565b60008115159050919050565b6119f9816119e4565b82525050565b6000602082019050611a1460008301846119f0565b92915050565b611a238161196e565b82525050565b6000602082019050611a3e6000830184611a1a565b92915050565b600080600060608486031215611a5d57611a5c61190b565b5b6000611a6b86828701611959565b9350506020611a7c86828701611959565b9250506040611a8d8682870161198f565b9150509250925092565b600060ff82169050919050565b611aad81611a97565b82525050565b6000602082019050611ac86000830184611aa4565b92915050565b6000819050919050565b611ae181611ace565b82525050565b6000602082019050611afc6000830184611ad8565b92915050565b600060208284031215611b1857611b1761190b565b5b6000611b2684828501611959565b91505092915050565b60007fff0000000000000000000000000000000000000000000000000000000000000082169050919050565b611b6481611b2f565b82525050565b611b7381611930565b82525050565b600081519050919050565b600082825260208201905092915050565b6000819050602082019050919050565b611bae8161196e565b82525050565b6000611bc08383611ba5565b60208301905092915050565b6000602082019050919050565b6000611be482611b79565b611bee8185611b84565b9350611bf983611b95565b8060005b83811015611c2a578151611c118882611bb4565b9750611c1c83611bcc565b925050600181019050611bfd565b5085935050505092915050565b600060e082019050611c4c600083018a611b5b565b8181036020830152611c5e81896118b0565b90508181036040830152611c7281886118b0565b9050611c816060830187611a1a565b611c8e6080830186611b6a565b611c9b60a0830185611ad8565b81810360c0830152611cad8184611bd9565b905098975050505050505050565b6000602082019050611cd06000830184611b6a565b92915050565b611cdf81611a97565b8114611cea57600080fd5b50565b600081359050611cfc81611cd6565b92915050565b611d0b81611ace565b8114611d1657600080fd5b50565b600081359050611d2881611d02565b92915050565b600080600080600080600060e0888a031215611d4d57611d4c61190b565b5b6000611d5b8a828b01611959565b9750506020611d6c8a828b01611959565b9650506040611d7d8a828b0161198f565b9550506060611d8e8a828b0161198f565b9450506080611d9f8a828b01611ced565b93505060a0611db08a828b01611d19565b92505060c0611dc18a828b01611d19565b91505092959891949750929550565b60008060408385031215611de757611de661190b565b5b6000611df585828601611959565b9250506020611e0685828601611959565b9150509250929050565b7f4e487b7100000000000000000000000000000000000000000000000000000000600052602260045260246000fd5b60006002820490506001821680611e5757607f821691505b602082108103611e6a57611e69611e10565b5b50919050565b7f4e487b7100000000000000000000000000000000000000000000000000000000600052601160045260246000fd5b6000611eaa8261196e565b9150611eb58361196e565b9250828201905080821115611ecd57611ecc611e70565b5b92915050565b7f4578636565647320636170000000000000000000000000000000000000000000600082015250565b6000611f09600b83611864565b9150611f1482611ed3565b602082019050919050565b60006020820190508181036000830152611f3881611efc565b9050919050565b7f4e487b7100000000000000000000000000000000000000000000000000000000600052604160045260246000fd5b600060c082019050611f836000830189611ad8565b611f906020830188611b6a565b611f9d6040830187611b6a565b611faa6060830186611a1a565b611fb76080830185611a1a565b611fc460a0830184611a1a565b979650505050505050565b6000604082019050611fe46000830185611b6a565b611ff16020830184611b6a565b9392505050565b600060608201905061200d6000830186611b6a565b61201a6020830185611a1a565b6120276040830184611a1a565b949350505050565b600060a0820190506120446000830188611ad8565b6120516020830187611ad8565b61205e6040830186611ad8565b61206b6060830185611a1a565b6120786080830184611b6a565b9695505050505050565b60006080820190506120976000830187611ad8565b6120a46020830186611aa4565b6120b16040830185611ad8565b6120be6060830184611ad8565b95945050505050565b7f4e487b7100000000000000000000000000000000000000000000000000000000600052602160045260246000fd5b600060408201905061210b6000830185611a1a565b6121186020830184611a1a565b939250505056fea2646970667358221220832f124ce3ad8cee51b3b5a453e8a69e91067275cf9d75e677859a1895d21c8164736f6c63430008140033",
  "linkReferences": {},
  "deployedLinkReferences": {}
}